:020000040800F2
:1000000040150020990100081F2A000899230008C4
:100010001D2A0008130A00086D2F000800000000C8
:1000200000000000000000000000000001010008C6
:10003000590B00080000000045010008A92B00082A
:10004000B3010008B3010008B3010008B3010008C0
:10005000B3010008B3010008B3010008B3010008B0
:10006000B3010008B3010008B3010008B3010008A0
:10007000B3010008B3010008B3010008B301000890
:10008000B3010008B3010008B3010008B301000880
:10009000B3010008B3010008B3010008B301000870
:1000A000B3010008B3010008B3010008B301000860
:1000B000B3010008B3010008352C0008B3010008A3
:1000C000B3010008B3010008B3010008B301000840
:1000D000B3010008B3010008612F0008B301000854
:1000E000B3010008B3010008B3010008DFF80CD029
:1000F00000F05CFC00480047B13A000840150020C1
:10010000224B19680868B0E8F00F80F30988BFF344
:100110006F8F4FF0000080F311884EF00D0E704786
:100120000000000006480068006880F3088862B696
:1001300061B6BFF34F8FBFF36F8F00DF00BF00BF0B
:1001400008ED00E0EFF30980BFF36F8F0F4B1A68E3
:1001500020E9F00F106008B54FF0500080F31188CF
:10016000BFF34F8FBFF36F8F04F0CEFB4FF0000053
:1001700080F31188BDE8084019680868B0E8F00FFE
:1001800080F30988BFF36F8F704700BF70000020B5
:10019000EFF3058070470000064880470648004797
:1001A000FEE7FEE7FEE7FEE7FEE7FEE7FEE7FEE727
:1001B000FEE7FEE7332C0008ED000008202A04DBF0
:1001C000203A21FA02F00021704721FA02F3D040D0
:1001D000C2F12002914008431946704740EA0103EA
:1001E0009B0703D009E008C9121F08C0042AFAD2ED
:1001F00003E011F8013B00F8013B521EF9D27047B1
:10020000D2B201E000F8012B491EFBD27047002258
:10021000F6E710B513460A4604461946FFF7F0FF05
:10022000204610BDF0B480EA0102D40F4200B2EBC8
:10023000410F02D20246084611464A0042D0C30D81
:10024000DDB2C1F3C752AD1A202D35DAC1F3160164
:1002500041F4000204B15242C5F1200602FA06F14F
:100260002A411044B3EBD05F23D0C4B1012DA0EBE1
:10027000C35009DCF0BC4FF0004202EAC352DBB2CB
:1002800000F5000000F0BEB9400000F1807000EB06
:10029000C350A0F1807040EAD170490009E04908DC
:1002A00041EAC071A0EBC35000F50000400800EB2C
:1002B000C350F0BC00F09DB96142012202EB410144
:1002C000001BF6E7F0BC704781F00041AAE780F020
:1002D0000040A7E780EA010210B502F000434000A9
:1002E00022D04A001FD0010E01EB1261C0F356006C
:1002F000C2F3560240F4000042F40002A0FB0220C8
:1003000000047F39140400D0401C50EA124001D48C
:100310004000491EC2B20C0604EBD010401C40083D
:10032000802A02D003E0002010BD20F00100002947
:1003300000DA0020184310BD30B480EA010202F058
:10034000004530F0004221F0004013D090B1C30DC1
:10035000D40DC2F31601C0F31600E41A41F40001F3
:1003600040F400027D34914201D3641C00E0490056
:10037000002C02DA30BC002070474FF4000000234C
:10038000914201D3891A034340084FEA4101F7D152
:1003900051B1914202D14FF0004105E002D24FF03D
:1003A000010101E06FF0010103EBC450284430BCAF
:1003B00000F01FB92DE9F04D81EA030404F0004B71
:1003C00021F0004514464FF0000A23F0004150EAA6
:1003D000050220D054EA01021DD0C5F30A57024697
:1003E000C5F31303C1F31300C1F30A5640F480159B
:1003F00043F48013A7EB0608101BD64608F2FD381D
:1004000073EB050002D308F1010801E092185B418B
:10041000B8F1000F03DA00200146BDE8F08D00209E
:100420004FF48011064684460EE0171B73EB050758
:1004300005D3121B63EB050306434CEA010C490884
:100440004FEA300092185B4150EA0107EDD152EAC1
:10045000030012D082EA040083EA0501084305D0B4
:10046000101BAB4106D20122002306E000224FF010
:10047000004302E06FF0010253101AEB06004CEB50
:10048000085110EB0A0041EB0B01BDE8F04D00F004
:10049000E7B870B521F0004303430CD0C1F30A550F
:1004A0000024D5EB040564EB0403D617AD1AB34161
:1004B00002DB0020014670BD201841EB025170BDE7
:1004C00096230022114600F09DB80EB5C10F80EAB8
:1004D000E0700844CA07002140F233438DE80E0063
:1004E0000A460B4600F0CBF803B000BD0EB540F253
:1004F000334102910021CDE900110A460B4600F07C
:10050000BEF803B000BD00F0004230F000400AD059
:10051000C10D01F56071C0F3160042EA0151C20835
:1005200040071143704700200146704701F0004327
:1005300030B421F0004150EA010206D00A0DA2F5C4
:100540006072C1F31301002A02DC30BC0020704746
:10055000440F44EAC104C100E01830BC00EBC250B3
:1005600000F047B830B50B46014600202022012498
:1005700009E021FA02F59D4205D303FA02F5491B71
:1005800004FA02F52844151EA2F10102F1DC30BD87
:100590002DE9F05F0546002092469B4688460646B8
:1005A000814640241BE02846414647462246FFF745
:1005B00005FE53465A46C01A914110D311461846BB
:1005C000224600F005FA2D1A67EB01084F46224635
:1005D0000120002100F0FCF917EB00094E41201E1C
:1005E000A4F10104DFDC484631462A464346BDE813
:1005F000F09F0029A8BF7047401C490008BF20F0A9
:100600000100704710B4B0FA80FC00FA0CF050EA18
:10061000010404BF10BC704749B1CCF1200421FA99
:1006200004F411FA0CF118BF012121430843A3EB94
:100630000C01CB1D4FEA00614FEA102042BF0020A1
:1006400010BC704700EBC35010440029A4BF10BC7D
:100650007047401C490008BF20F0010010BC7047E3
:1006600010B5141E73F1000408DA401C41F10001BA
:1006700092185B411A4301D120F0010010BD2DE911
:10068000F04D92469B4611B1B1FA81F202E0B0FA08
:1006900080F22032904600F09BF904460F4640EA73
:1006A0000A0041EA0B0153465A46084313D011464B
:1006B00053EA010019D0C8F140025046FFF77EFD11
:1006C00005460E4650465946424600F081F9084319
:1006D00005D0012004E020463946BDE8F08D002019
:1006E000054346EAE0762C4337430A986305E40A5B
:1006F000A0EB08000022FD0A44EA47540A3002D564
:1007000000200146E9E7010510196941DDE90845C6
:1007100000196941BDE8F04DA2E72DE9FE4F804682
:1007200081EA0300C00F0C46009021F0004123F045
:100730000045B8EB0200A94105D24046214690464B
:100740001C460B46024623F00040104347D0270DBD
:10075000C7F30A00C3F30A510290401A01904028DF
:100760006BDAC3F3130040F4801B0098924620B16B
:100770000023D2EB030A63EB0B0B01985946C0F13F
:100780004002504600F024F906460D4650465946B0
:10079000019A00F02CF910EB08006141002487EA6F
:1007A000115284EAE7731A4340D0009A62B3019A67
:1007B000012A4FEA075215DC001B61EB02014FF0E2
:1007C000004202EA0752CDE90042001C41F58011C7
:1007D00032462B46FFF753FF03B0BDE8F08F40468B
:1007E0002146F9E7001B61EB0201001C41F5801373
:1007F00000185B412018A2F5001747EB030140EAFF
:10080000D570B6196D4111E06D084FEA360645EA1C
:10081000C0754FEA0752001B61EB0201001C41F555
:10082000801149084FEA30000019514132462B46E9
:1008300003B0BDE8F04FFFF713BF0098012240005E
:100840000023D0EB020263EBE073009821464FEAED
:10085000E074B8EB000061EB0401E9E783F00043CA
:100860005BE781F0004158E72DE9FE4F81EA030480
:1008700004F0004421F0004100944FF0000B23F0FD
:10088000004350EA01045ED052EA03045BD0C3F394
:100890000A54C1F30A552C44A4F2F3340194A0FB8A
:1008A0000254C1F3130141F48011C3F3130343F461
:1008B000801301FB024400FB034E840A970A44EABA
:1008C000815447EA8357A4FB076802958D0A05FB0C
:1008D00007854FEA932C04FB0C542705029D4FEA31
:1008E000065847EA1637B5EB08056EEB070C870E7E
:1008F000920E47EA811742EA8312A7FB0201B6EB88
:100900000B0164EB00042B0D43EA0C335E1844EB3F
:100910001C50DA465146E7FB0201C5F313044FEAC7
:100920000B3343EA14534FEA0432019C43EA0603B3
:10093000A4F10C040294009CCDE900B4FFF79FFEE3
:1009400003B0BDE8F08F00200146F9E7C1F30A5279
:10095000C1F3130140F2FF3341F480119A4202DAED
:1009600000200146704740F233439A42A2F23342DC
:1009700002DC5242FFF722BC00F02AB830B5041E58
:1009800071F1000404DB4FF00044404264EB0101CC
:10099000141E73F1000405DB1C464FF00043524265
:1009A00063EB0403994208BF904230BD064C074DEB
:1009B00006E0E06840F0010394E80700984710342F
:1009C000AC42F6D3FFF796FB745400089454000829
:1009D000202A04DB203A00FA02F1002070479140FF
:1009E000C2F1200320FA03F3194390407047202AF4
:1009F00006DBCB17203A41FA02F043EAE07306E047
:100A000041FA02F3D040C2F1200291400843194656
:100A10007047FEE72DE9F04700254FF0010A4FF43B
:100A20008069DFF88480214C00F012FAE06300F066
:100A30000FFA4F46206402E000F00AFA20643946BB
:100A4000404600F0FBF920B9D4E90F01801C884230
:100A5000F2D8282003F0CEF8B9463946474640463A
:100A600000F0ECF90028C5F107010AFA01F019D0ED
:100A70003043C6B200F0ECF9C4F83C0000F0E8F9ED
:100A800020644946384600F0D9F920B1D4E90F0175
:100A9000801C8842F2D86D1CEDB2082DC4D33046BC
:100AA000BDE8F0878643E5E7000C01400000002028
:100AB0002DE9FF41002502204FF480644FF001082A
:100AC000CDE90250224ECDE900482F466946304616
:100AD00000F0C4F800222146304600F0B4F914209A
:100AE00000F0AAF801222146304600F0ACF91E20A1
:100AF00003F080F8CDE901786946304600F0AEF8A1
:100B0000282003F077F82146304600F097F940B9E5
:100B1000502003F06FF82146304600F08FF900B105
:100B2000012500F095F90B4FC7F83C0000F090F953
:100B300038642146304600F081F920B1D7E90F0131
:100B4000801C8842F2D804B02846BDE8F08100003D
:100B5000000C014000000020704710B590F82110F3
:100B60000022022905D00421816380F82020012081
:100B700010BD01680B6823F00E030B6001680B6861
:100B800023F001030B6090F84030C46B012101FA9F
:100B900003F3636080F8211080F82020104610BD18
:100BA00010B590F821100024022903D0042181639C
:100BB00001243DE001680A6822F00E020A60016823
:100BC0000A6822F001020A601A4A0168914201D1C2
:100BD000012121E0174A1432914201D110211BE07A
:100BE000144A2832914201D1891515E0114A3C324C
:100BF000914201D189140FE00E4A5032914202D144
:100C00004FF4803108E00B4A6432914202D14FF434
:100C1000801101E04FF08071064A083A51600121CD
:100C200080F82110002180F82010416B01B1884725
:100C3000204610BD0800024070B5044600F008F9D7
:100C40000546601C02D004480078044400F000F916
:100C5000401BA042FAD370BD600000202DE9F84F80
:100C6000DFF8B891002409F1040A0AF1040B2346C5
:100C70000F270BF1040EC9E00125A5402A40AA4226
:100C80007DD1674ED1F804C0ACEB0608B44532D034
:100C900014DCBCF1030F3AD009DCBCF1000F2AD000
:100CA000BCF1010F1CD0BCF1020F31D11DE0BCF131
:100CB000110F17D0BCF1120F2AD119E0B8F5881F17
:100CC00019D006DCB8F5803F15D0B8F5801F1FD1CC
:100CD00011E0B8F5001F0ED0B8F5041F18D10AE0D6
:100CE000CB6815E0CB681B1D12E0CB6808330FE022
:100CF000CB680C330CE08B682BB1012B4FF0080351
:100D000003D0456104E0042302E0056100E0002314
:100D1000FF2A01D8064601E000F104064FEA8405E7
:100D200001D9A5F12005D6F8008007FA05FC28EACC
:100D30000C0803FA05F548EA0508C6F800804D6876
:100D4000ED0062D5374DAE6946F00106AE61AD6982
:100D500024F0030605F001050095334D06EB050C64
:100D6000DCF80850A607360F07FA06F825EA08054A
:100D7000DFF8B880404503D14FF0000817E044E0A9
:100D8000DFF8AC80404502D14FF001080FE0DFF8FA
:100D9000A480404502D14FF0020808E0DFF89880B7
:100DA000404502D14FF0030801E04FF0040808FA73
:100DB00006F848EA0508CCF808804D68D9F80060C4
:100DC000ED034D4601D5164300E096432E604D6875
:100DD000DAF80060AD03554601D5164300E09643AE
:100DE0002E604D68DBF80060ED025D4601D51643CC
:100DF00000E096432E604D68DEF80060AD02754657
:100E000001D5164300E096432E60641C0D682A4607
:100E1000E5407FF431AFBDE8F88F000000040140E9
:100E200000001110001002400000014000080140C5
:100E3000000C01400010014000140140806808408F
:100E400000D0012070470AB1016170470904FBE737
:100E500001488068704700006000002070B5040001
:100E600025D094F83D00002520B984F83C50204658
:100E700000F00EFB242084F83D002068016821F07A
:100E8000010101602068016841F4004101602068AF
:100E9000016821F40041016000F096FC4D4A616850
:100EA000914201D84C4900E04C49884201D20120CE
:100EB00070BD4B492368B0FBF1F15E6826F03F0638
:100EC0000E435E606368934206D94FF496735943AC
:100ED0004FF47A73B1FBF3F12368491C1E6A26F0C4
:100EE0003F06314319626168914210D84900401EA3
:100EF000B0FBF1F2521CC2F30B02042A01D204200F
:100F000022E0B0FBF1F0401CC0F30B001CE0A26833
:100F1000F2B301EBC10303EB0116431EB3FBF6F37F
:100F20005B1C43F480431B0549D092B301EBC10223
:100F300002EB0111401EB0FBF1F0401CC0F30B00AE
:100F400040F4804040F400402168CA694CF6FF73C9
:100F50009A431043C861D4E907100143206802682E
:100F600022F0C00211430160D4E90301014320686B
:100F7000826848F2FF339A4311438160D4E9050146
:100F800008432168CA6822F0FF021043C86001E0EC
:100F90000EE016E02068016841F00101016025645F
:100FA000202084F83D00256384F83E50002070BD69
:100FB00001EB4106431EB3FBF6F35B1CB3E70120D4
:100FC000C2E701EB4101401EB0FBF1F0401CC0F351
:100FD0000B00B7E7A086010080841E0000093D00D9
:100FE00040420F002DE9F84F1F4690468A460446BE
:100FF000DDF82890FFF72CFF054694F83D002028E7
:101000007FD11923012240492046009501F022FB9F
:10101000002876D194F83C00012872D0012084F891
:101020003C0020680168C90703D1016841F0010153
:1010300001602068016821F400610160212084F8CA
:101040003D00102084F83E0000262664C4F8248069
:101050006785608D20852D48E0622B464A465146C3
:10106000204601F0B1F990B920684169806900908B
:1010700036E02A464946204601F09EFB50B1206CDE
:10108000042804D12068016841F400710160012046
:10109000BDE8F88F606A216800780861606A401CCA
:1010A0006062618D491E6185218D491E89B221854D
:1010B00022685369DB435B070BD451B100781061A0
:1010C000606A401C6062608D401E6085208D401EFD
:1010D00020852A464946204601F096FA0028CED1BE
:1010E000208D0028C5D154F83D0B016841F40071F2
:1010F0000160202004F81E09E67766770020C7E724
:10110000FFE70220C4E70000020010000000FFFF1C
:101110002DE9FF4F83B00025DDE910799A4693460B
:101120000446DDF848800095FFF792FE064694F8E5
:101130003D0020287CD119230122854920460096B4
:1011400001F088FA0028F5D194F83C0001286FD00E
:10115000012084F83C0020680168C90703D10168B8
:1011600041F0010101602068016821F40061016023
:10117000222084F83D00402084F83E002564676208
:10118000A4F82A90608D20857248E062CDE900863F
:1011900053465A462046049901F064F900287DD14F
:1011A000208DDFF8B491202768B1012814D00228DF
:1011B000206801681ED041F48061016020684169A7
:1011C00080690090B6E020684169816900910168FA
:1011D00041F400710160ADE02068016821F4806194
:1011E000016072B62068416981690091016841F42B
:1011F00000710AE041F40061016072B62068416943
:1012000081690091016821F48061016062B691E01A
:10121000032868D801280CD0022843464FF000026A
:101220004946204600960FD001F014FAB0BB10E0FA
:101230008BE032464146204601F08BFA70BB2068B5
:101240000069616A08706CE001F004FA30BB72B6A4
:1012500034E02068016821F48061016072B6206882
:101260000069616A0870606A401C6062208D401EDF
:101270002085608D401E6085384846F2A8110068C0
:10128000B0FBF1F0C0EBC00000EB80000090401E0E
:10129000009008D020684069C04300E029E0400782
:1012A0000CD50098F3E744F8305F6773A5732069A5
:1012B00040F02000206162B625731AE020680168C2
:1012C00041F40071016020680069616A0870606A19
:1012D000401C6062218D491E2185618D491E6185FA
:1012E00062B621681BE032464146204601F031FAE1
:1012F00018B1012007B0BDE8F08F20680069616A6D
:101300000870606A401C6062218D491E2185618DD4
:10131000491E618521684A69D24352070AD4096986
:101320000170606A401C6062208D401E2085608DC7
:10133000401E6085208D00287FF46AAF84F83D70E0
:1013400084F83E5084F83C50D4E70220D2E70000F5
:10135000020010000000FFFF040001006C000020EC
:101360002DE9FF4F83B09A46DDE911979346044675
:10137000DDF84080FFF76CFD054694F83D0020281D
:101380007FD11923012240492046009501F062F9DE
:10139000002876D194F83C00012872D0012084F80E
:1013A0003C0020680168C90703D1016841F00101D0
:1013B00001602068016821F400610160212084F847
:1013C0003D00402084F83E0000262664C4F82480B6
:1013D000A4F82A90608D20852C48E062CDE9007544
:1013E00053465A462046049901F0BAF870B930E0E5
:1013F0002A463946204601F0DFF958B1206C04280E
:1014000004D12068016841F400710160012007B037
:10141000BDE8F08F606A216800780861606A401C4E
:101420006062218D491E89B22185628D521E6285BE
:1014300022685369DB435B070BD469B10078106104
:10144000606A401C6062208D401E2085608D401EB9
:101450006085208D0028CBD12A463946204601F0F0
:10146000D3F80028CAD154F83D0B016841F400714B
:101470000160202004F81E09E67766770020C6E7A1
:10148000FFE70220C3E70000020010000000FFFF9A
:1014900010B586B00021009101910291039100687E
:1014A0000F4988421AD10F4CA06940F00800A06192
:1014B000A069694600F008000490C0200090122046
:1014C0000190032003900848FFF7C8FBE06940F44F
:1014D0000010E061E06900F40010049006B010BD57
:1014E0000054004000100240000C01400248816896
:1014F000027811448160704760000020074810B5F1
:10150000016841F010010160032000F095F80F2000
:1015100000F006F800F03EF8002010BD0020024068
:1015200000B5014687B000221E2000F065F81E209D
:1015300000F054F81348C16941F00401C161C06969
:1015400005A900F004000690684600F01DF900F0BF
:101550003BF90D494000B0FBF1F10D480B4A491E23
:101560000260416040F2E7320021C0E9032181605E
:1015700000F046FB10B1012007B000BD044800F0A8
:10158000A9FBF9E70010024040420F0000080040AC
:10159000080400200F4808B5816941F0010181610C
:1015A000816901F001010091C16941F08051C1617F
:1015B000C069002200F0805000900F21901E00F0C2
:1015C0001BF80548416821F0E06141F0007141607D
:1015D00008BD00000010024000000140002809DBA7
:1015E00000F01F02012191404009800000F1E0203D
:1015F000C0F8001170470000F0B40E4B1B680C4699
:10160000C3F30223C3F10705042D00D90425191DD6
:10161000072901D2002300E0DB1E012606FA05F1AE
:10162000491E214099409E40761E16403143F0BC31
:1016300001F0C2BC0CED00E0064900F007020868AA
:101640004FF6FF03184040EA0220034A10430860A7
:10165000704700000CED00E00000FA052DE9F047AE
:101660000F46050061D0434E306800F00700B842D5
:1016700009D2306820F0070038433060306800F04D
:101680000700B84251D128683B4C810712D540076A
:1016900003D5606840F4E06060602878000703D5F7
:1016A000606840F4605060606068A96820F0F000F5
:1016B000084360602878C00728D06868012810D0E7
:1016C0002168022810D0890700292EDA616821F0EC
:1016D000030101436160FFF7BBFB804641F288399B
:1016E0000DE021688903EFE78901EDE7FFF7B0FB23
:1016F000A0EB0801494502D90320BDE8F0876068E6
:10170000696800F00C00B0EB810FEFD1306800F099
:101710000700B8420BD9306820F00700384330602A
:10172000306800F00700B84201D00120E5E72878D2
:10173000400705D56068E96820F4E0600843606010
:101740002878000706D56068296920F4605040EACF
:10175000C100606000F058F86168084AC1F30311E5
:10176000515CC8400649086006480068FFF7D8FE8B
:101770000020C2E700200240001002402054000870
:101780006C000020640000200F2202600C4A5368A5
:1017900003F003034360536803F0F003836053686E
:1017A00003F4E063C36052684FF4E06303EAD202DB
:1017B00002610448006800F00700086070470000FC
:1017C00000100240002002400448054900684968B2
:1017D000044AC1F30221515CC84070476C000020EC
:1017E0000010024030540008044805490068496868
:1017F000044AC1F3C221515CC84070476C0000200C
:10180000001002403054000812A185B00FC98DE8C5
:101810000F0014A0144A006804905168134801F0A6
:101820000C03042B10D0082B0ED1C1F38343C90342
:101830001DF803000AD5516804AAC1F34041515C68
:101840000A4A5043B0FBF1F005B0704708494843DD
:10185000FAE7000002030405060708090A0B0C0D4D
:101860000E0F1010010200000010024000127A005A
:1018700000093D002DE9F84F040070D02078C04DDC
:10188000C00749D06868C0F38100012807D06868A4
:10189000C0F38100022809D16868C00306D5286812
:1018A000800339D560680028E7D035E06068B0F57E
:1018B000803F0BD010B1B0F5A02F11D0286820F4D4
:1018C00080302860286820F4802002E0286840F4F6
:1018D00080302860606890B1FFF7BAFA06460AE0E7
:1018E000286840F480202860F0E700BFFFF7B0FAD6
:1018F000801B642873D828688003F7D50CE0FFF7B5
:10190000A7FA064605E000BFFFF7A2FA801B64288D
:10191000F0D828688003F7D420789A4E80074FF0DB
:1019200001094FF0000839D5686810F00C0F07D096
:101930006868C0F38100022809D16868C00306D432
:101940002868800714D52069012808D110E0206993
:10195000B0B1C6F80090FFF77BFA074605E00AE150
:10196000FFF776FAC01B0228C4D828688007F7D58D
:101970002868616920F0F80040EAC10028600DE0A5
:10198000C6F80080FFF764FA074604E0FFF760FA44
:10199000C01B022823D828688007F7D420780007C6
:1019A0002CD57948A169D9B1C0F80090FFF750FA59
:1019B000074604E0FFF74CFAC01B02280FD8686AFC
:1019C0008007F7D571484FF4FA510068B0FBF1F089
:1019D000009000BF0098411E0091FAD20EE080E016
:1019E000C0F80080FFF734FA074604E0FFF730FA4A
:1019F000C01B022875D8686A8007F7D42078400792
:101A000060D5E8690027C00008D4E86940F080503C
:101A1000E861E869012700F0805000905C480168A7
:101A2000C90513D40168834641F480710160FFF752
:101A30000FFA824606E000BFFFF70AFAA0EB0A00A1
:101A400064284ED8DBF80000C005F5D5E068012811
:101A50000AD008B1052813D0286A20F001002862B6
:101A6000286A20F0040002E0286A40F001002862A1
:101A7000E06841F2883B98B1FFF7EAF982460BE053
:101A8000286A40F004002862EEE700BFFFF7E0F9A3
:101A9000A0EB0A0159455AD8286A8007F6D50CE010
:101AA000FFF7D6F9824605E0FFF7D2F9A0EB0A016D
:101AB00059454CD8286A8007F6D41FB1E86920F050
:101AC0008050E861E06988B36968C1F38101022947
:101AD00044D00228C6F8608004D0FFF7B9F9044664
:101AE00038E034E0FFF7B4F9074604E0FFF7B0F957
:101AF000C01B02282BD828688001F7D4206AB0F5D3
:101B0000803F05D16868A16820F400300843686010
:101B1000D4E908010843696821F474110843686036
:101B2000C6F86090FFF794F9044606E025E000BF90
:101B3000FFF78EF9001B022809D828688001F7D525
:101B40001BE000BFFFF784F9001B022802D9032025
:101B5000BDE8F88F28688001F4D40EE00128F7D0A2
:101B60006868226A00F48031914204D1616A00F40D
:101B70007010884201D00120EAE70020E8E7000069
:101B80000010024000004242800442426C000020EB
:101B9000007000407047704770B590F83C20012AF3
:101BA00026D0012480F83C40022280F83D200368C2
:101BB0005A689D6822F070060A6832435A600D4BDD
:101BC00002689A4208D0B2F1804F05D00A4B9A427F
:101BD00002D00A4B9A4204D1496825F08003194388
:101BE000916080F83D40002180F83C10084670BDAF
:101BF000022070BD002C014000040040000800409D
:101C000010B5040003D094F83D0010B107E00120A6
:101C100010BD002084F83C00204600F01FF8022090
:101C200084F83D00211D206801F00AF8012084F8A5
:101C3000460084F83E0084F83F0084F8400084F8B1
:101C4000410084F8420084F8430084F8440084F89A
:101C5000450084F83D00002010BD000008B5006874
:101C60000649884208D10648816941F400618161D2
:101C7000806900F40060009008BD0000002C014065
:101C80000010024090F83D10012901D0012070475A
:101C9000022180F83D1000680B49884208D0B0F15D
:101CA000804F05D00949884202D00949884204D1B1
:101CB000816801F00701062903D0016841F00101A4
:101CC0000160002070470000002C0140000400402B
:101CD0000008004090F83D10012901D00120704714
:101CE000022180F83D100168CA6842F00102CA6012
:101CF00000680B49884208D0B0F1804F05D00949EF
:101D0000884202D00849884204D1816801F0070165
:101D1000062903D0016841F00101016000207047ED
:101D2000002C0140000400400008004070B504464B
:101D300090F83C00012817D0012584F83C5002207F
:101D400084F83D002068826822F0770222F47F4206
:101D500082600868502830D00DDC20284DD005DC8A
:101D600098B310283BD148E0022070BD302844D001
:101D7000402834D139E0602828D0702806D0B0F54A
:101D8000805F2CD0B0F5005F29D10AE0CB68D1E9A3
:101D90000121206800F08AFF2068816841F0770106
:101DA00009E0CB68D1E90121206800F07FFF2068BD
:101DB000816841F48041816011E0CA684968206807
:101DC00000F086FF5021206807E016E0CA684968E5
:101DD000206800F08EFF6021206800F071FF84F819
:101DE0003D50002084F83C0070BDCA6849682068F6
:101DF00000F06EFF40212068EFE7226801461046A0
:101E0000EBE7704770B50446006801694FF00005C4
:101E1000C943890715D4C168C943890711D4E91E8C
:101E2000016101202077206880698007204602D068
:101E3000FFF7E7FF04E000F098F8204600F096F87E
:101E4000257720680169C943490717D4C168C94388
:101E5000490713D46FF00401016102202077206844
:101E6000806910F4407F204602D0FFF7CAFF04E0EB
:101E700000F07BF8204600F079F8257720680169AA
:101E8000C943090716D4C168C943090712D46FF0C2
:101E900008010161042020772068C069800720467E
:101EA00002D0FFF7AEFF04E000F05FF8204600F03C
:101EB0005DF8257720680169C943C90617D4C16850
:101EC000C943C90613D46FF01001016108202077BF
:101ED0002068C06910F4407F204602D0FFF791FFD0
:101EE00004E000F042F8204600F040F82577206832
:101EF0000169C943C90708D1C168C943C90704D1E9
:101F0000891E0161204600F033F820680169C94349
:101F1000090609D4C168C943090605D46FF08001D8
:101F200001612046FFF736FE20680169C943490672
:101F300009D4C168C943490605D46FF04001016165
:101F4000204600F01FF820680169C94389060BD4B8
:101F5000C168C943890607D46FF02001016120469A
:101F6000BDE87040FFF717BE70BD704770470000B6
:101F700000680349884201D1FFF7B8BA70470000F2
:101F8000000800407047704770470000F8B50268CD
:101F900004461068D168536910F00F0F4FF0000528
:101FA00054D003F0010601F4907737435FD0C207A5
:101FB00005D0CA0503D5226C42F001022264420713
:101FC00005D5DA0703D0226C42F0020222648207B0
:101FD00005D5DA0703D0226C42F00402226402071E
:101FE00007D501F02002324303D0226C42F00802F0
:101FF0002264226C002A35D0800604D5880602D5DA
:10200000204600F0A8FE20684069216CC0F38010D3
:1020100001F008010143204625D000F084FE20682D
:10202000416949061BD5416921F040014161A06B1E
:10203000A8B158494163A06BFEF7B2FD002811D04A
:10204000A06B416B01B0BDE8F040084783060ED598
:102050008B060CD52046BDE8F84000F07CBE20463B
:10206000FFF792FFF8BDFFF78FFF2564F8BD266BE1
:102070002023012E52D1C60650D5CE064ED510686B
:1020800050680090506940062AD5A16B08684068E6
:102090000004000CEAD0A68D8642E7D9E085886965
:1020A000202818D0D06820F48070D0602068416962
:1020B00021F0010141612068416921F04001416145
:1020C00084F83E3025632068C16821F01001C160AA
:1020D000A06BFEF742FDA08DE18D401A81B219E0A0
:1020E000A08DE18D401A81B2E08D0028BED000297C
:1020F000BCD0D06820F49070D0602068426922F093
:102100000102426184F83E3025632068C26822F0F3
:102110001002C2602046FFF736FFF8BD05062BD53A
:102120000D0629D594F83D002128F6D1A068B0F518
:10213000805F01D12069B0B1206A411C2162216811
:1021400000784860E08C401E0004000CE084E4D17C
:102150002068C16821F08001C1602068C16841F039
:102160004001C160F8BD206A0088C0F308005060DB
:10217000206A801C2062E5E74006F3D54806F1D5C9
:10218000D168204621F04001D16084F83D3000F054
:1021900002F9F8BD172D000870B5040004D094F8BA
:1021A0003D00002510B106E0012070BD84F83C50D0
:1021B000204600F023F8242084F83D002068C16800
:1021C00021F40051C160204600F020FE2068016922
:1021D00021F4904101612068416921F02A014161A7
:1021E0002068C16841F40051C1602564202084F852
:1021F0003D0084F83E00002070BD000030B585B081
:1022000000240094019402940394006818498842C1
:102210002BD11848C16941F40031C161C16901F491
:1022200000310491816941F0040181618069124D9E
:1022300000F004000490042000900220019003208C
:10224000039069462846FEF709FD0820CDE9000401
:10225000694628460294FEF701FD0022052126204A
:10226000FFF7CAF92620FFF7B9F905B030BD000025
:1022700000440040001002400008014090F83E3049
:10228000202B0ED159B152B190F83C30012B08D01F
:10229000012380F83C300023036300F013BE0120CB
:1022A00070470220704700000B4810B5017868297C
:1022B0000BD1006D03F02AF838B108494FF0805077
:1022C0000860BFF34F8FBFF36F8FBDE8104001224E
:1022D00001490348FFF7D2BF0000002004ED00E0F1
:1022E000700100202DE9F843044690F83D001F4698
:1022F00016460D4620284CD1C5B1BEB194F83C001D
:10230000012846D0012084F83C004FF00008C4F8B2
:102310004080212084F83D00FEF79AFDA684814686
:10232000E684A068B0F5805F03D004E00120BDE83A
:10233000F883206928B12E465FF0000584F83C80C0
:102340000EE00026FAE78021204600F0D6FDA0B975
:10235000AEB116F8010B21684860E08C401EE084A5
:10236000E08C4B464FF0000200970028EBD14FF075
:102370004001204600F0C1FD30B10320D7E735F819
:10238000020BC0F30800E6E7202084F83D0000209F
:10239000CDE70220CBE77047FEE701684A69D243E8
:1023A00052050FD46FF480624A61002140F8301F5B
:1023B000202242738173026942F0040202610173B8
:1023C0000120704700207047F8B50446C06A1E46D9
:1023D0000D461746082807D0012805D010F5803F84
:1023E00002D0206B122804D12068016841F480716A
:1023F0000160134600224FF001112046009600F0C4
:1024000029F940B120680068C00502D54FF400707A
:1024100020640320F8BD2069B0F5804F0ED006205F
:10242000216800EAD51040F0F000086133463A46D2
:102430000B49204600F042F978B902E005F0FE00B1
:1024400000E0E8B221680861054933463A46891F31
:10245000204600F033F90028DCD00120F8BD000050
:10246000080001002DE9F84F0446006889460B9DDD
:1024700001689846174641F4806101602068016850
:1024800041F48071016000954FF0011B0022594614
:1024900020460A9B00F0DEF84FF4007A40B1206835
:1024A0000068C00501D5C4F840A00320BDE8F88F3E
:1024B000216809F0FE0008612B46284920460A9A47
:1024C00000F0FCF8F0BB20684169806900902A4662
:1024D00020460A9900F070F940B1206C04283AD1E6
:1024E0002068016841F40071016034E0FEB2B8F187
:1024F000010F09D02168380A08612A4620460A9946
:1025000000F05AF90028E8D1206806612A462046E2
:102510000A9900F051F90028DFD12068016841F4E0
:102520008071016000950022594620460A9B00F008
:1025300091F80028B3D1216809F0FF0040F00100B4
:10254000086100E007E02B46044920460A9A00F0A3
:10255000B5F80028AAD00120A8E700000200010079
:102560002DE9F843044600680D46DDE90897016847
:102570009846164641F4807101604B4600224FF0A8
:1025800001112046009700F065F848B12068006806
:10259000C00502D54FF4007020640320BDE8F88325
:1025A000216805F0FE0008613B464A461549204671
:1025B00000F084F888B920684169806900903A4643
:1025C0004946204600F0F8F848B1206C042804D1B0
:1025D0002068016841F4007101600120DEE7F5B276
:1025E000B8F1010F09D02168300A08613A4649461E
:1025F000204600F0E1F80028E7D1206805610020BE
:10260000CCE700000200010070B516460D460446F6
:102610000DE02046FFF7C1FE08B1012070BD681C27
:1026200005D0FEF715FC801BA84207D835B12068FD
:102630004069C0434007ECD4002070BD002044F83E
:10264000300F20216173A073216941F020012161C5
:102650002073E2E72DE9F0471E4690460D460446FA
:10266000C1F30747DDF8209008E0701C06D0FEF7A4
:10267000EFFBA0EB0900B0420FD876B12068012F24
:1026800018D0806925EA00000004000C14D0002155
:102690004145EAD00020BDE8F087002044F8300F23
:1026A00020216173A073216941F020012161207311
:1026B0000120F0E74069E5E70121E9E72DE9F0476E
:1026C0009A4691460E46044600254FF02008C1F375
:1026D000074725E020684069C043400514D42068BE
:1026E000016841F40071016021686FF48060486105
:1026F000256384F83D8084F83E50206C40F004004F
:10270000206484F83C501FE0B9F1FF3F08D0FEF789
:102710009FFBA0EB0A0149450CD8B9F1000F09D085
:102720002068012F13D0806926EA00000004000C05
:102730000BD0CFE744F8305F84F80D80A573206993
:1027400040F02000206125730120BDE8F08740693A
:10275000EAE72DE9F041002590460E460446202781
:1027600017E04069C043C0060CD454F8301B6FF02A
:102770001000486144F810596777A577206A2062F5
:10278000257717E0FEF764FBA0EB0800B04208D8FD
:102790003EB120684169C9434906E2D40020BDE842
:1027A000F08144F8305F6773A573206940F0200022
:1027B000206125730120F2E770B516460D460446E8
:1027C0000DE02046FFF7E9FD08B1012070BD681C4F
:1027D00005D0FEF73DFB801BA84207D835B1206825
:1027E0004069C0430006ECD4002070BD002044F8CE
:1027F000300F20216173A073216941F02001216114
:102800002073E2E7F0B585B0012504A8CDE9000505
:102810004FF47A742B467522D02102941A48FEF7A1
:1028200077FC9DF8100068282CD1002703AE8DF8A6
:102830000C700096CDE9015401236B22D02112487F
:10284000FEF78EFD07208DF80C000096CDE90154AF
:1028500001231922D0210C48FEF782FD8DF80C705F
:102860000096CDE9015401231C22D0210648FEF731
:1028700077FD0096CDE9015401231B22D0210248A7
:10288000FEF76EFD05B0F0BDD400002030B585B078
:102890004FF47A72062103A88DE8070001233B223A
:1028A000D0211748FEF734FCBDF80C00154C40BA97
:1028B00000B22081FDF709FE6FF00D052A46FDF7F5
:1028C000E8FDFDF733FE6062BDF80E0040BA00B2CD
:1028D0006081FDF7FAFD2A46FDF7DBFDFDF726FED8
:1028E000A062BDF8100040BA00B2A081FDF7EDFD76
:1028F0002A46FDF7CEFDFDF719FEE06205B030BDBA
:10290000D4000020000000202DE9F04385B0002411
:1029100025480094019402940394816941F01001C8
:102920008161816901F010010491816941F0200108
:102930008161816901F020010491816941F0040104
:102940008161816901F004010491816941F008010C
:1029500081618069DFF8548000F008004FF4005571
:102960000490002229464046FEF76DFADFF84090B9
:10297000EF10002239464846FEF765FA0095022618
:1029800001250396CDE9015469464046FEF766F9F4
:1029900000970396CDE9015469464846FEF75EF973
:1029A00005B0BDE8F08300000010024000100140B7
:1029B000000C014010B586B0002417480094019423
:1029C0000294039404941349059401604721C0E9DB
:1029D00001144FF6FF71C0E9031444618461FFF7ED
:1029E0000FF908B172B6FEE74FF4805000906946C7
:1029F0000948FFF79BF908B172B6FEE7049404A9F1
:102A000005480594FFF7C8F8002801D072B6FEE724
:102A100006B010BD002C014028010020FEE7FEE7B3
:102A20000E4C0225FFF732FF6421606D01F0FAF8C9
:102A30000146057060690861606A4860A06A886044
:102A4000E06AC860A0790875606D01F06DF9E088F2
:102A5000401CE080C82001F0D9F8E3E70000002026
:102A60000F4C01254FF47A7600F020FF6421606D51
:102A700001F0D8F80146057060690861606A486035
:102A8000A06A8860E06AC860A0790875606D01F08E
:102A90004BF9E088401CE080304601F0B7F8E3E7EE
:102AA0000000002086B0DFF85CB0002001F0C6FE18
:102AB00015A000F05DFA64226846DBF8541001F0BE
:102AC000EBF8019C2069FDF71EFD81468A46E0680F
:102AD000FDF719FD07468846A068FDF714FD054679
:102AE0000E466068FDF70FFD8DE8E00702460B46D5
:102AF0000BA000F03DFA2146DBF8540001F0C6F8C7
:102B0000D3E70000000000204C6179206475206C40
:102B1000696575207475206E6761740A0000000095
:102B200041783A2025302E31662C2041793A2025F3
:102B3000302E31662C20417A3A2025302E31662CF9
:102B400020543A2025302E3166200A000EB5154D4E
:102B500064226846696D01F09FF8019C2078012885
:102B600012D00228F4D1D4E90330D4E9011201F0E3
:102B700095FC2146686D01F089F8E888401EE880E0
:102B8000C82001F043F8E3E7D4E90330D4E90112A7
:102B900001F084FC2146686D01F078F8E888401E59
:102BA000E880D5E70000002010B5502080F31188A0
:102BB000BFF34F8FBFF36F8F02F05CFA18B1044977
:102BC0004FF080500860002080F3118810BD000095
:102BD00004ED00E030B58FB028216846FDF717FB03
:102BE00014210AA8FDF713FB01210804CDE9001008
:102BF0000024029402250491CDE907504FF4E0101F
:102C000009906846FEF736FE08B172B6FEE70F205F
:102C1000CDE90A054FF48060CDE90C4002210AA8F5
:102C20000E94FEF71BFD002801D072B6FEE70FB030
:102C300030BD70470148FFF7E5B8000008040020E8
:102C4000F0B50268164B174C174D4FF0804798426D
:102C500005D0B84203D0A04201D0A84203D122F04F
:102C600070064A683243984205D0B84203D0A04269
:102C700001D0A84203D122F44074CA6822434C69AF
:102C800022F08002224302608A68C2620A6882627D
:102C9000984201D10969016301214161F0BD000041
:102CA000002C0140000400400008004010B584687A
:102CB00042EA032224F47F440A432243826010BD87
:102CC000826822F070020A4342F007018160704777
:102CD00010B5036A046A24F001040462846924F0D4
:102CE000F00444EA021423F00A020A4384610262F7
:102CF00010BD10B5036A23F0100303628369046AF0
:102D000023F4704343EA023224F0A00343EA0111A2
:102D10008261016210BD10B5406A0021C185C18485
:102D2000FFF732F910BD0168CA6822F49072CA60D8
:102D300001684A6922F001024A61016B012904D14C
:102D40000168CA6822F01002CA60202180F83E1093
:102D500000210163704708B590F83E10222901D088
:102D6000022008BD82684FF480539A4201D1016964
:102D700021B1816A9A421BD04AB10AE00268816A95
:102D80005268C2F308020A80816A891C08E002695D
:102D900072B10268526802F07F020A70816A491CAF
:102DA0008162C18D491E0904090CC18503D019E057
:102DB00002685268F1E70168CA6822F02002CA601E
:102DC0000168CA6822F48072CA6001684A6922F008
:102DD00001024A61202180F83E10016B012903D0D5
:102DE000FFF762FA002008BD002101630168CA688C
:102DF00022F01002CA6001680A68D20602D50A6889
:102E000049680091818DFFF7BEF8EBE770B5044685
:102E100000680169E26821F44051114301612169B0
:102E2000A0680843616908432168CA6841F20C63DD
:102E30009A430243CA6020684169A26921F4407143
:102E4000114341611E492068884202D1FEF7CCFC43
:102E500001E0FEF7B9FC00EBC00101EB0012606875
:102E600064218000B2FBF0F3B3FBF1F36FF01806BE
:102E70007343B2FBF0F5B2FBF0F605EB83053223AA
:102E800003EB0515B5FBF1F5B6FBF1F605F0F00522
:102E900005EB0615B2FBF0F6B2FBF0F0B0FBF1F07B
:102EA0006FF01802504306EB800003EB0010B0FBFC
:102EB000F1F0216800F00F002844886070BD000028
:102EC0000038014081628285C2850021016422228E
:102ED00080F83E2080F83C100168CA6842F4807295
:102EE000CA6001684A6942F001024A610068C1682B
:102EF00041F02001C160002070472DE9F041984663
:102F000017460E460446069D1DE0681C1BD02DB1D9
:102F1000FDF79EFFA0EB0800A84214D92068C16805
:102F200021F4D071C1602068416921F00101416143
:102F3000202084F83D0084F83E00002084F83C0006
:102F40000320BDE8F0812068006836EA000004D064
:102F50000020B842D9D00020F3E70120F9E70000B3
:102F60000148FFF713B8000070010020FEE70000E1
:102F70000FB4054B10B503A9044A029800F0EEF80F
:102F800010BC5DF814FB000095380008D00000204C
:102F90000FB4084B10B504A902AA039800F0DEF89C
:102FA000044602A9002000F070FC204610BC5DF829
:102FB00014FB00008B3800080907090E002804DB09
:102FC00000F1E02080F80014704700F00F0000F1DD
:102FD000E02080F8141D704702E008C8121F08C1E5
:102FE000002AFAD170477047002001E001C1121F8A
:102FF000002AFBD1704700002DE9FF5FDDE90220C8
:10300000010DDDF838B0024318D044F61050A1F29B
:10301000FF3141430D140F98012820D0A5EB0B0080
:10302000401C5FEA000A4FF00004474EDFF81C9195
:10303000A046504616D5CAF1000728E00F98012493
:1030400043A2012808D0002100980F9BC0E900216D
:10305000C0E90243BDE8FF9F6FEA0B01F4E7CBF143
:103060000000DEE7074612E0F80707D022463346A5
:1030700040464946FDF7F8FB8046894622463346DE
:1030800010461946FDF7F0FB04460E467F10002F50
:10309000EAD1DDE90201BAF1000F42464B4602DAFD
:1030A000FDF7E2FB01E0FDF785F904460E4600223C
:1030B000284BFDF763FC03D84FF0FF30014607E0D3
:1030C0000022254B20463146FDF727FBFDF73EFC4D
:1030D000102409E0002C0ADB0A220023FDF758FA2D
:1030E000019B30321A55641E50EA0102F2D1641C71
:1030F000019AC4F1110314440F9A012A03D001224A
:1031000008430DD10AE0084304D000204FF0110B12
:103110000F9080E7A3EB0B056D1E0DE05B4504DD12
:103120004FF0000205F1010504E003DA4FF0000260
:10313000A5F10105002AECD000980F99C0E90231F1
:10314000C0E9004586E70000000024400000F03F91
:10315000300000000000F0430000E03F2DE9FF4F89
:1031600095B09B468946064600250FE2252877D173
:1031700000242746F84A0121059400E0044316F88C
:10318000013F203B01FA03F01042F7D130782A28A2
:1031900011D06FF02F033078A0F13002092A16D831
:1031A000059A44F0020402EB820203EB420210444F
:1031B000761C0590EFE759F8042B0592002A03DAF4
:1031C000504244F40054059044F00204761C3078D8
:1031D0002E2816D116F8010F44F004042A280DD029
:1031E0006FF02F023078A0F13003092B09D807EBDC
:1031F000870302EB4303C718761CF3E759F8047BF7
:10320000761C30786C280FD006DC4C2817D0682844
:103210000DD06A2814D104E0742810D07A280FD178
:103220000DE044F400140AE044F4801401E044F496
:1032300040147278824202D104F58014761C761C08
:10324000307866280BD013DC582877D009DC0028AA
:1032500075D04528F6D04628F4D047281AD19DE1EC
:1032600018E0632835D0642879D0652812D195E11B
:10327000702873D008DC6728F1D069286FD06E28D9
:103280000DD06F2806D1B5E073282CD0752875D0E5
:10329000782874D05A46179990476D1C75E1C4F38D
:1032A0000250022809D003280DD0D9F800100428B4
:1032B0000DD00D6009F1040967E1D9F80010EA1793
:1032C000C1E90052F6E7D9F800100D80F2E70D7061
:1032D000F0E719F8041B8DF8001000208DF80100AC
:1032E000EA46012003E059F804AB4FF0FF306107D4
:1032F0004FF0000102D40DE008F101018846B94207
:103300000FDA8045F8DB1AF808100029F4D108E03C
:1033100008F1010188468142FADB1AF808100029F9
:10332000F6D105985B46A0EB080721463846179A68
:1033300000F094FA284400EB080507E04DE029E18D
:103340000DE01AF8010B5A4617999047B8F1010899
:10335000F7D25B4621463846179A13E142E00A222B
:103360000092C4F302524FF0000A022A08D059F822
:1033700004CB032A4FEAEC710AD00DE029E02AE0E1
:1033800009F1070121F00702F2E802C1914609E0C4
:103390000FFA8CFC4FEAEC71042A03D14FFA8CFC33
:1033A0004FEAEC71002907DA0A460021DCF1000C33
:1033B00061EB02012D2202E0220504D52B228DF8BB
:1033C0000420012203E0E20701D02022F7E7904623
:1033D00059E00A2102E010220DE010214FF0000A0E
:1033E00000910BE010224FF0000A44F0040408277B
:1033F000009203E008224FF0000A0092C4F3025248
:10340000022A05D059F804CB0021032A08D009E08C
:1034100009F1070121F00702F2E802C1914605E037
:103420001FFA8CFC042A01D10CF0FF0C4FF00008AD
:10343000220728D5702806D0009B83F0100353EA9A
:103440000A0305D00EE040228DF80420012208E096
:103450005CEA010206D030228DF804208DF80500C8
:1034600002229046009B83F0080353EA0A030AD124
:103470005CEA010201D1620705D530228DF80420F3
:103480004FF001087F1E582804D034A003900EA8E6
:1034900002900DE036A0F9E753466046009AFDF72A
:1034A00077F884460398825C0298401E029002706E
:1034B0005CEA0100F0D1029806A9081A00F1200A7E
:1034C000600702D524F4803400E00127574502DD6F
:1034D000A7EB0A0000E0002000EB0A01009005982D
:1034E0004144401A0590E00306D45B462146179AF2
:1034F000059800F0B3F90544002706E001A85A46F4
:10350000C05D179990476D1C7F1C4745F6DBE003B3
:103510000CD55B462146179A059800F09FF90544A3
:1035200004E030205A46179990476D1C0099481EB8
:1035300000900029F5DC08E0029802995A460078CC
:10354000491C0291179990476D1CBAF10001AAF12C
:10355000010AF1DC65E10000092801003031323355
:1035600034353637383961626364656600000000BF
:1035700030313233343536373839414243444546A9
:103580000000000000F058F90544761C307800284F
:103590007FF4ECAD19B02846BDE8F08F620700D487
:1035A000062709F1070222F0070CFCE80223E14696
:1035B00003F000485FEA080C02D00FF2702C0DE017
:1035C0005FEA045C02D50FF2682C07E05FEAC47C76
:1035D00002D00FF2602C01E0AFF2700C4FF0FF3818
:1035E00023F00043CDF850C065280CD006DC4528F8
:1035F00009D046281DD047283DD13DE0662818D087
:1036000067287ED138E00021112F01DB112000E076
:10361000781CCDE9000106A90EA8FFF7EDFCDDE955
:103620000F010E9A03910021009207F1010A049103
:103630004DE04FF000400097CDE9011006A90EA81B
:10364000FFF7DAFCDDE90F0203920E9B11990022CD
:10365000DDF80CA00093049211B9791C00EB010A6B
:10366000B7EB0A0004D4C0F1FF3007F1010A04905F
:10367000AAEB0700019044E0012F00DA01270021A6
:10368000112F01DD112000E03846CDE9000106A927
:103690000EA8FFF7B1FCDDE90F010E9A039100219E
:1036A00004910092BA4621070CD40399514500DADF
:1036B0008A46BAF1010F05DD009AAAF10101515CB9
:1036C000302908D0B84202DA10F1040F06DA0121DD
:1036D000CDE9011015E0AAF10101E9E7002805DCB8
:1036E000049901440491AAEB000102E0411C5145F8
:1036F00000DD8A460499401A401C01904FF00040BA
:103700000290200704D40198504501DBCDF80480D5
:1037100000208DF84F0002980DF14F07B0F1004FD7
:1037200025D02B200E9002984FF0020800280CDACA
:10373000404202902D200E9007E00A210298FCF7EB
:1037400011FF3031029007F8011DB8F10001A8F116
:103750000108F2DC02980028EFD1791E0E9808705B
:10376000307800F0200040F0450007F8020D12A864
:10377000C01B00F107081498007800B1012000EB8D
:103780000A01019801EBE07105984144401A401E7E
:103790000590E00306D45B462146179A059800F091
:1037A0005DF805441498007818B15A461799904767
:1037B0006D1CE00324D55B462146179A059800F05E
:1037C0004DF805441CE00498002807DBDDE90301FF
:1037D000884203DD0098405C179901E0179930207A
:1037E0005A469047049805F10105401C0490019841
:1037F000401E019004D12E205A46179990476D1C07
:10380000BAF10001AAF1010ADDDC05E017F8010BAD
:103810005A46179990476D1CB8F10001A8F10108AC
:10382000F4DC5B462146179A0598ABE62D000000B4
:103830002B000000200000002DE9F0410446002587
:103840001E461746880404D405E039462020B047B8
:103850006D1C641EF9D52846BDE8F0812DE9F041C4
:10386000044600251E469046C80301D5302700E0D7
:103870002027880404D505E041463846B0476D1C32
:10388000641EF9D52846BDE8F0810A68531C0B6018
:103890001070704713B56423012269460248FEF791
:1038A00021FD00981CBD0000700100202DE9F047AB
:1038B000FDF7FEF8002848D0FDF7ACF8244C607006
:1038C000FDF7A8F8A070FDF7A5F8E070FDF7A2F8E5
:1038D0002071FDF79FF860716178A6788846E578D9
:1038E00031444A1921790A4482422ED10846FCF714
:1038F000FDFDDFF8609000224B46FCF75BFDFCF716
:1039000015FE07462846FCF7DBFD3946FCF78AFC26
:1039100011496061FCF7DEFC1049FCF70DFD4FF02A
:103920008441FCF77FFCA0613046FCF7DFFD0022FC
:103930004B46FCF73FFDFCF7F9FD05464046FCF71A
:10394000BFFD2946FCF76EFCE061BDE8F087000092
:103950000000002000002440000010410000A040B2
:10396000EFF30580002800D00120704710B58020BB
:1039700000F054F80024202000F070F8641C102C93
:10398000F9DBBDE81040802000F048B810B53220C7
:10399000FDF752F9302000F041F80520FDF74CF911
:1039A000302000F03BF80120FDF746F9302000F010
:1039B00035F80A20FDF740F9202000F02FF80A2002
:1039C000FDF73AF9282000F029F80120FDF734F935
:1039D000082000F023F80120FDF72EF9012000F067
:1039E0001DF80120FDF728F90120FDF725F9062033
:1039F00000F014F80120FDF71FF9BDE810400C207D
:103A000000F00CB810B1012805D102E041F08001AE
:103A100001E041F0C001C8B2AFF300801CB500F076
:103A2000F00141F00C028DF8042041F00801000182
:103A30008DF8051040F00C018DF8061040F00800DC
:103A40008DF8070064200090042301AA4E2102484B
:103A5000FDF7C8FA1CBD0000D40000201CB500F022
:103A6000F00141F00D028DF8042041F00901000140
:103A70008DF8051040F00D018DF8061040F009009A
:103A80008DF8070064200090042301AA4E2102480B
:103A9000FDF7A8FA1CBD0000D400002010B50446B4
:103AA00002E0641CFFF7DAFF20780028F9D110BD8E
:103AB000A4B0FDF723FDFFF78DF8FEF725FF414881
:103AC0003F49002401604FF4E131C0E901140C21A9
:103AD000C460C0E904418461C461FEF75DFB08B1C4
:103AE00072B6FEE7374838499C3801603749C0E96B
:103AF00001144FF48041C0E9034144618461C46111
:103B00000462FDF7ABF908B172B6FEE7FEF752FFAB
:103B10002C484838FEF7B6F8FEF774FE01222C490F
:103B20002848FEF7ABFBFFF731FF2AA0FFF7B6FFEF
:103B30002C4D0DF1700C95E80F008CE80F00002162
:103B40001CA800F01FF9224C2062D5E90401CDE940
:103B5000200123A82290002120A800F069F86065C8
:103B60001C2205F11C016846FCF738FB0021684661
:103B700000F097F9A0641C2205F1380107A8FCF7B2
:103B80002DFB002107A800F08CF9E0641C2205F150
:103B900054010EA8FCF722FB00210EA800F081F9C9
:103BA00060641C2205F1700115A8FCF717FB0021C9
:103BB00015A800F076F9206500F02FF8FEE7000068
:103BC000004400407001002000540040A086010025
:103BD00000000020496E697469616C697A696E67DA
:103BE0002E2E2E009453000801460020842900D078
:103BF000C81C7047044900220B685A6209684A6A67
:103C00008242FCD3704700002801002010B500B9A3
:103C1000012000F091FD002010BD10B500F0D8FD8E
:103C2000002010BD002802D0806800F0BEB87047A8
:103C30003EB504460020009001900290206800905C
:103C4000606801900C2000F0ABFBA16800280860C0
:103C500019D0046000220421206800F0D7FEA1687A
:103C600009684860A168096870B1684600F0D2F838
:103C70000100A06800688160A068006803D100BFEF
:103C800000F0F0FC00203EBD0846F9E710B1806866
:103C900000F0EFB8802070472DE9FF410D00064687
:103CA000029522D04FF000084446CDF80C80501CFD
:103CB00020D002B11446FFF753FE20270028686881
:103CC00069461CD003AA091D01F0E6F8012814D0AA
:103CD000CDF800800398D8B112494FF080500860A9
:103CE000BFF34F8FBFF36F8F12E0802000902A4602
:103CF00001990FE04FF0FF34DDE70097EAE7224635
:103D0000091D01F02DF8012808D04CB14020009089
:103D10009DE8070086E80700BDE8FF810097F7E708
:103D20000020F4E704ED00E013B582B004000FD0EA
:103D300000200090FFF714FE002860684FF0000399
:103D400014D06A4603A900F0ADFF012814D102E0A7
:103D5000802004B010BD009880B109494FF0805018
:103D60000860BFF34F8FBFF36F8F07E0002203A9F6
:103D700000F0E8FE012801D0FF20EAE70020E8E794
:103D800004ED00E038B5D0E9011204683AB1C36827
:103D90002BB100200090204600F05CFE38BD20468C
:103DA000BDE83840002200F031BE70B50025044661
:103DB0002E46FFF7D5FD48B15020EFF3118580F373
:103DC0001188BFF34F8FBFF36F8F01E000F016FC37
:103DD0000021A26809E020690844B0FBF2F302FB6D
:103DE000130063681B5C43B1491C8A42F3D8FFF798
:103DF000B7FD58B185F311880AE0626801211154BA
:103E0000E2682168206100FB0216F0E700F016FC72
:103E1000304670BD2DE9F04105464068C01C20F0D9
:103E20000307142000F0BCFA04001FD00026286805
:103E30002661C4E90207286800F0B2FA606088B120
:103E40002868784300F0ACFA206040B1002002E01E
:103E500061680E54401C29688142F9D806E0606808
:103E600000F000FC204600F0FDFB00242046BDE8E9
:103E7000F08178B171B102688A420BD8891AC268A0
:103E8000B1FBF2F302FB131323B9B1FBF2F1826829
:103E90008A4201D880207047406800224254104670
:103EA00070477FB50D4604464169B0F9080081B1FD
:103EB000A16971B1FFF798FED4E905128DE80700FA
:103EC000D4E900102B46226901F09BF8039004B05E
:103ED00070BDFFF789FE03A9CDE90001208A2B46BA
:103EE00082B2D4E9001001F05FF8012801D000206F
:103EF000EDE70398EBE700002DE9F041184C0F4681
:103F0000054666692068001D00F028FB38B9206866
:103F100090F82C1001208840A1698143A161681CA0
:103F200007D137B12168BDE8F0410E48091D00F006
:103F300059BB20683544B5424560216805D2A06868
:103F4000BDE8F041091D00F035BB6068091D00F0B7
:103F500031FB206B854200D22563BDE8F081000073
:103F6000700000202C0500202DE9F041054600F0EE
:103F700045FB2E4C2069401C206120682C4F10B15D
:103F8000E06940B32DE025602069012829D1002691
:103F900006EB860007EB800000F0FEFA761C072E89
:103FA000F6D323488C3000F0F7FA2148A03000F017
:103FB000F3FA1F48B43000F0EFFA1D48C83000F0A3
:103FC000EBFA1B48DC3000F0E7FA19488C306060EF
:103FD0001430A06005E02068E96AC06A884200D811
:103FE0002560E06A401CE062E96A0120A26988401D
:103FF0001043A06101EB810007EB8000291D00F058
:10400000F1FA00F01BFBE06900280CD02068E96A97
:10401000C06A884207D207494FF080500860BFF35A
:104020004F8FBFF36F8FBDE8F0810000700000205C
:104030005004002004ED00E030B4026C0B46002A6E
:104040000BD0C1681144C1604468A14201D301682A
:10405000C16030BC1846FCF7C1B830BC70472DE9D0
:10406000F041856B174604460026026C82B1C7B149
:10407000E068FCF7B3F8E168206C091AE160226897
:10408000914202D26168081AE060022F16D017E050
:104090002068A8B9606801F051F806460020606009
:1040A0000EE0A068FCF79AF8216CA0680844A060B4
:1040B0006168884204D32068A06001E005B16D1EEC
:1040C0006D1CA5633046BDE8F08110B5044690F83C
:1040D000510058B101280CD002280FD0502080F395
:1040E0001188BFF34F8FBFF36F8FFEE7206B00F097
:1040F000B9FA2046BDE8104000F0B4BA10BD000087
:1041000010484FF44061420706D0C01D0D4920F011
:104110000700411AC1F540610B4A00230144C2E97E
:1041200000030839103A21F0070111604B600B6061
:104130000B1AC0E9001393604FF000405360D06049
:104140007047000040050020BC000020144E154CB4
:10415000A6F1C8074FF08058DFF84C9012E000BF7E
:1041600000F04CFAF068C568281D00F0F7F92069E6
:10417000401E2061E068401EE06000F05FFA2846C3
:10418000FFF7A3FFE0680028EAD138680128F9D9D1
:10419000C9F80080BFF34F8FBFF36F8FF2E70000C5
:1041A000180500207000002004ED00E00346009890
:1041B00029B10260C0E90F31012100F07FBC00602D
:1041C000F8E72DE9F0479A46DDE9098481466FF06A
:1041D0000303206B03EB82021044089D20F00706C6
:1041E000700707D0502080F31188BFF34F8FBFF3C3
:1041F0006F8FFEE723180A5C83F834200A5C12B143
:10420000401C1028F6D3002784F84370072D00D3F4
:104210000625E562C4E91157201D00F0C8F904F134
:10422000180000F0C4F92461C5F107006462A061C0
:10423000E76484F8507052464946304600F01CF955
:104240002060B8F1000F01D0C8F80040BDE8F08749
:1042500030B5114900E011460A688242FBD34B6831
:104260005C18844203D1406818444860084643689B
:104270001C18944209D1084C103C2468A24209D071
:1042800052681A4442600A6812680260814200D093
:10429000086030BD0460F9E7BC00002010B504469A
:1042A00000F0ACF9A06B28B15FF0000400F0C6F993
:1042B000204610BD0124F9E706484168096829B184
:1042C0004168C968C9684968016370474FF0FF31A8
:1042D000FAE700007000002008484068401C4FF0DA
:1042E000500080F3118804D0BFF34F8FBFF36F8F5E
:1042F000FEE7BFF34F8FBFF36F8FFEE7C4000020D0
:10430000002150B10A4B42699A420FD1806AA3F151
:10431000280290420AD040B108E0502080F3118872
:10432000BFF34F8FBFF36F8FFEE701210846704741
:104330002C0500202DE9F041044600F05FF994F9C6
:10434000455004F1240609E0606A48B1304600F0A7
:1043500041FF08B100F01EFA6D1E6DB2002DF3DCB6
:104360004FF0FF3684F8456000F068F900F046F938
:1043700094F9445004F1100709E0206948B1384627
:1043800000F028FF08B100F005FA6D1E6DB2002D97
:10439000F3DC84F84460BDE8F04100F04FB9000060
:1043A0002DE9F0410546002700F0A6FA314E3068AD
:1043B00008B9FFF7A5FEF06805424BD1C5B3083533
:1043C00068070ED005F00700C0F108000544680733
:1043D00007D0502080F31188BFF34F8FBFF36F8F4A
:1043E000FEE72DB37068854234D82248103001466C
:1043F0000C6801E020460C466168A94202D221689F
:104400000029F7D131688C4224D007682168016007
:1044100060680837411B10290FD96019420708D07E
:10442000502080F31188BFF34F8FBFF36F8FFEE7EB
:1044300010E041606560FFF70BFF61687068401A2B
:104440007060B268904200D2B060F0680143002012
:10445000C4E9000100F0F8FE780707D0502080F38F
:104460001188BFF34F8FBFF36F8FFEE73846BDE86B
:10447000F0810000AC00002010B5031F4FF08074E5
:104480001C601B1F21F001011960191F024B0B60FA
:10449000143940380A6010BDD94200082DE9F041B6
:1044A0001D4616460F460446FFF760FA3846FCF7ED
:1044B0002AF802460B4622A12348FEF769FD23A0F5
:1044C000FFF7ECFA2048FFF7E9FA08210020FFF790
:1044D00099FA3046FCF717F802460B4618A11A481D
:1044E000FEF756FD1AA0FFF7D9FA1748FFF7D6FADC
:1044F00000210120FFF786FA2846FCF704F802465F
:104500000B460FA11048FEF743FD12A0FFF7C6FAB5
:104510000D48FFF7C3FA08210120FFF773FA204680
:10452000FBF7F1FF02460B4605A10748FEF730FDF9
:1045300009A0FFF7B3FABDE8F0410348FFF7AEBAB0
:1045400025302E31660000005800002041783D00E3
:1045500041793D00417A3D00543D0000D0E90132EF
:1045600001699A60D0E901235A604A68824201D108
:1045700082684A60002202610868401E086008687C
:1045800070470000034B036003F154000860802073
:1045900010607047B401002000F108014FF0FF32B5
:1045A000C0E90112C1600161002101607047002172
:1045B0000161704730B50B685A1C02D000F1080247
:1045C00002E0026904E02246546825689D42FAD957
:1045D00053684B6099608A60516008610168491CAA
:1045E000016030BD42684A6093688B60936859608F
:1045F000916008610168491C01607047502080F398
:104600001188BFF34F8FBFF36F8F0A494868401C72
:10461000486001280CD10848006810F0FF0F07D04F
:10462000502080F31188BFF34F8FBFF36F8FFEE7E9
:1046300070470000C400002004ED00E0084948680D
:1046400028B1401E486001D180F311887047502086
:1046500080F31188BFF34F8FBFF36F8FFEE7000029
:10466000C400002070B5002827D0144DA0F1080424
:104670006168E868014207D1502080F31188BFF3D8
:104680004F8FBFF36F8FFEE722683AB1502080F35F
:104690001188BFF34F8FBFF36F8FFEE781436160D7
:1046A00000F02AF960686968084468602046FFF7EE
:1046B000CFFDBDE8704000F0C7BD70BDAC0000206C
:1046C0004FF0E02000210161816105494FF47A72C9
:1046D0000968B1FBF2F1491E416107210161704790
:1046E0006C00002010B5FBF753FD114910280ED3C4
:1046F00000F1E02090F8F0030A78904207D25020B1
:1047000080F31188BFF34F8FBFF36F8FFEE7094827
:104710000068896800F4E060884207D9502080F37F
:104720001188BFF34F8FBFF36F8FFEE710BD0000FE
:10473000C40000200CED00E010B5020014D00F48BA
:10474000806B38B1502080F31188BFF34F8FBFF3D7
:104750006F8FFEE700F0D0F800211046FFF7CCFB8A
:1047600000F072FD002807D105494FF08050086025
:10477000BFF34F8FBFF36F8F10BD0000700000209C
:1047800004ED00E002498A6A0260496941607047AD
:10479000700000200149012048627047700000202D
:1047A00010B50C4650B1094909681831FFF702FFEE
:1047B0002046BDE810400121FFF79EBB502080F34A
:1047C0001188BFF34F8FBFF36F8FFEE7700000209B
:1047D00010B586B00024039405AA04A903A8049484
:1047E000FFF7D0FEDDE903010094CDE901100023BD
:1047F0000EA11048059A00F004FC0F4900284863F8
:1048000011D0502080F31188BFF34F8FBFF36F8F0B
:104810004FF0FF3008630120C8614C6106B0BDE86D
:10482000104000F09FB806B010BD000049444C4550
:10483000000000004D4100087000002070B50446E3
:10484000FFF7DCFE294D04B92C68201DFFF786FE1A
:1048500058B9E06A264A00EB800152F8211021B9CC
:1048600001218140A8698843A861A06A18B104F1B8
:104870001800FFF773FE1E48211DDC30FFF7B2FE63
:1048800094F850000026012801D184F85060FFF709
:10489000D5FEE86928B1FFF7B1FEFFF70DFDFFF780
:1048A000CDFE2868844213D1E86990B1A86B38B175
:1048B000502080F31188BFF34F8FBFF36F8FFEE757
:1048C0000C494FF080500860BFF34F8FBFF36F8FDC
:1048D00070BD0748DC3000682969884201D12E602C
:1048E00070BDBDE8704000F00FB8000070000020FF
:1048F0005004002004ED00E00248816B491C8163F4
:1049000070470000700000201448816B11B1012134
:1049100041627047002141628169B1FA81F1C1F1C0
:104920001F0101EB81020E4951F822306BB101EBFE
:10493000820101F108034A6852684A609A4201D133
:1049400052684A60D16801607047502080F3118836
:10495000BFF34F8FBFF36F8FFEE7000070000020A2
:10496000500400201CB5264908780190FF200870EB
:1049700008788DF800009DF800009DF8002000F0F8
:10498000F000904207D0502080F31188BFF34F8F82
:10499000BFF36F8FFEE79DF800001A4B00F0500048
:1049A00018700720986005E09DF8002052008DF8EF
:1049B0000020401E9DF800201206F5D498600328C0
:1049C00007D0502080F31188BFF34F8FBFF36F8F54
:1049D000FEE74FF440709860019808700A4801683B
:1049E00041F470010160016841F070410160FFF71E
:1049F00067FE00205860FBF795FB00201CBD0000FF
:104A000000E400E0C400002020ED00E0F8B5174607
:104A10000E46050014D0DEB105FB06F04830FFF766
:104A2000BFFC04000AD0002084F8460004F14802CC
:104A30003B46314628460094FFF7B8FB2046F8BDB8
:104A4000502080F31188BFF34F8FBFF36F8FFEE7C5
:104A50000020E3E738B5049D18B153B1CAB181B164
:104A600020E0502080F31188BFF34F8FBFF36F8F8A
:104A7000FEE7502080F31188BFF34F8FBFF36F8F95
:104A8000FEE7502080F31188BFF34F8FBFF36F8F85
:104A9000FEE739B1502080F31188BFF34F8FBFF389
:104AA0006F8FFEE748241C46012384F846302B46CE
:104AB0000094FFF77BFB204638BD000070B50D4623
:104AC000040025D0FFF79AFDD4E90F20216802FBEE
:104AD000001161600021A1632168A1600A46D4E948
:104AE0000F01401E00FB0121E16021464FF0FF3025
:104AF00001F8440F487004F110008DB1FFF74CFD30
:104B000004F12400FFF748FDFFF798FD012070BD78
:104B1000502080F31188BFF34F8FBFF36F8FFEE7F4
:104B200021690029F0D000F055FB0028ECD00449A1
:104B30004FF080500860BFF34F8FBFF36F8FE3E7F4
:104B400004ED00E02DE9FF4782B01D468A464FF094
:104B50000008040003D0BAF1000F08D011E0502083
:104B600080F31188BFF34F8FBFF36F8FFEE7206C88
:104B700038B1502080F31188BFF34F8FBFF36F8F90
:104B8000FEE7022D0AD1E06B012807D0502080F308
:104B90001188BFF34F8FBFF36F8FFEE700F05CFA11
:104BA0003F4F4FF000094FF0805648B9049838B194
:104BB000502080F31188BFF34F8FBFF36F8FFEE754
:104BC000FFF71CFDA06BE16B884207D3022D05D0D7
:104BD0000498D0B1B8F1000F1AD01EE02A46514611
:104BE0002046FFF73CFA616A19B104F1240000F095
:104BF000F1FA20B13E60BFF34F8FBFF36F8FFFF725
:104C00001DFD012006B0BDE8F087FFF717FD22E08B
:104C10006846FFF7B7FD4FF00108FFF70FFDFFF7FC
:104C20006BFEFFF7EBFC94F94400401C01D184F8C3
:104C3000449094F94500401C01D184F84590FFF759
:104C4000FDFC04A9684600F075F930B12046FFF775
:104C500071FB00F0F9FA0020D4E7FFF7CFFCA06B5E
:104C6000E16B884213D1FFF7E9FC04F110000499CD
:104C7000FFF796FD2046FFF75DFB00F0E5FA002800
:104C80009ED13E60BFF34F8FBFF36F8F98E7FFF762
:104C9000D5FC2046FFF74EFB00F0D6FA90E7000067
:104CA00004ED00E02DE9F0471F46904689460400D8
:104CB00003D0B9F1000F08D011E0502080F3118823
:104CC000BFF34F8FBFF36F8FFEE7206C38B15020DA
:104CD00080F31188BFF34F8FBFF36F8FFEE7022F72
:104CE0000AD1E06B012807D0502080F31188BFF370
:104CF0004F8FBFF36F8FFEE7FFF7F4FC5020EFF309
:104D0000118680F31188BFF34F8FBFF36F8FA06BB5
:104D1000E16B884206D3022F04D0002086F311886D
:104D2000BDE8F08794F945503A4649462046FFF7DA
:104D300096F9681C04D06D1C84F845500120EDE7FD
:104D4000606A0028FAD004F1240000F043FA002839
:104D5000F4D0B8F1000FF1D00121C8F80010EDE750
:104D60002DE9F747002683B08A46040003D0BAF144
:104D7000000F08D011E0502080F31188BFF34F8F4F
:104D8000BFF36F8FFEE7206C38B1502080F311889D
:104D9000BFF34F8FBFF36F8FFEE700F05DF9DFF8D1
:104DA000F4804FF000094FF0805748B9059838B1AA
:104DB000502080F31188BFF34F8FBFF36F8FFEE752
:104DC000FFF71CFCA56BC5B151462046FFF734F92F
:104DD0006D1EA563206950B104F1100000F0FAF9CE
:104DE00028B1C8F80070BFF34F8FBFF36F8FFFF784
:104DF00025FC012006B0BDE8F087059808B11EB17A
:104E000006E0FFF71BFC27E06846FFF7BBFC012626
:104E1000FFF714FCFFF770FDFFF7F0FB94F9440077
:104E2000401C01D184F8449094F94500401C01D104
:104E300084F84590FFF702FC05A9684600F07AF86F
:104E4000002820460AD0FFF775FA00F0FDF9204649
:104E5000FFF724FA0028B3D00020CBE7FFF71EFAB3
:104E600090B104F124000599FFF79AFC2046FFF762
:104E700061FA00F0E9F90028A2D1C8F80070BFF388
:104E80004F8FBFF36F8F9BE72046FFF753FA00F079
:104E9000DBF995E704ED00E02DE9F04790468946FF
:104EA000040003D0B9F1000F08D011E0502080F3C6
:104EB0001188BFF34F8FBFF36F8FFEE7206C38B1BF
:104EC000502080F31188BFF34F8FBFF36F8FFEE741
:104ED000FFF708FC5020EFF3118680F31188BFF331
:104EE0004F8FBFF36F8FA76BF7B194F944504946CA
:104EF0002046FFF7A1F87F1EA763681C04D06D1C35
:104F000084F84450012010E020690028FAD004F110
:104F1000100000F05FF90028F4D0B8F1000FF1D0D4
:104F20000121C8F80010EDE7002086F31188BDE8E4
:104F3000F08700002DE9F0410C46050011D0C4B106
:104F4000FFF75CFB174B5A696E682068911B471C82
:104F500017D02F689B6A9F4219D0964217D8012418
:104F600010E0502080F31188BFF34F8FBFF36F8F95
:104F7000FEE7502080F31188BFF34F8FBFF36F8F90
:104F8000FEE70024FFF75AFB2046BDE8F081884287
:104F900005D9401A20602846FFF7F4FBF1E700200E
:104FA0002060DCE7700000202DE9FF5F8346DDE92B
:104FB0000E87994616468A469000FFF7F1F90500DC
:104FC0001CD05420FFF7ECF9040014D00020256316
:104FD00084F85100CDE90240CDE900874B463246C6
:104FE00051465846FFF7EDF82046FEF7BDFF012079
:104FF00004B0BDE8F09F2846FFF734FB4FF0FF30C8
:10500000F6E7F0B585B0DDE90B640A9DA6B1DCB129
:10501000542700972663022684F85160002604AFC7
:10502000CDE90246CDE90057FFF7CBF82046FEF761
:105030009BFF049805B0F0BD502080F31188BFF3AA
:105040004F8FBFF36F8FFEE7502080F31188BFF3BF
:105050004F8FBFF36F8FFEE70548C16919B1806BB1
:1050600018B10020704701207047022070470000EF
:10507000700000202DE9F0412E4C0027A06B40B1BC
:10508000206A401C2062606A00B101273846BDE8F2
:10509000F0816669761C666113D16068006838B17A
:1050A000502080F31188BFF34F8FBFF36F8FFEE75F
:1050B0006068A1686160A060A06A401CA062FFF700
:1050C000FBF8206BDFF87080864209D360680068C7
:1050D00080B16068C068C568686886420DD2206388
:1050E0002068C06A00EB800158F821000128CAD965
:1050F0000127C8E74FF0FF30F1E7281DFFF72EFA30
:10510000A86A18B105F11800FFF728FAE86A01212A
:10511000A26981401143A16100EB800108EB81008D
:10512000291DFFF75FFAE86A2168C96A8842CDD372
:105130000127CBE7700000205004002070B5040068
:105140004FF0000140D0214D2868844207D0502004
:1051500080F31188BFF34F8FBFF36F8FFEE7A06C12
:1051600038B1401EA064636CE26A9A422CD040B110
:105170002AE0502080F31188BFF34F8FBFF36F8F69
:10518000FEE7201DFFF7EAF9114A012150B9E06A54
:1051900000EB800352F8233023B9AB6901FA00F029
:1051A0008343AB61606CE062C0F10700A061E06A1C
:1051B000AB6981401943A96100EB800002EB8000DC
:1051C000211DFFF70FFA0121084670BD7000002075
:1051D000500400202DE9F041C068C468ACB104F16E
:1051E00018000746FFF7BAF9154DA86B0126A0B1C4
:1051F00039461448FFF7F6F9E06A2968C96A884217
:105200001CD901206E62BDE8F081502080F3118826
:10521000BFF34F8FBFF36F8FFEE7201DFFF79EF99F
:10522000E16AAA6906FA01F01043A86101EB810066
:105230000449B43901EB8000211DDBE70020E2E7DF
:1052400070000020040500202DE9F0472C4D0024BB
:105250002746A86B38B1FFF7D1F9A86B401EA863A9
:10526000A86B40B146E0502080F31188BFF34F8F08
:10527000BFF36F8FFEE72969224E0120D1B3A6F15B
:10528000B40980463068E8B1F068C46804F11800D9
:10529000FFF764F9201DFFF761F9E06AAA6908FACF
:1052A00000F11143A96100EB800109EB8100211D90
:1052B000FFF798F9E06A2968C96A8842E2D3C5F81D
:1052C0002480DFE70CB1FEF7F7FF2C6A44B14646B5
:1052D000FFF7D0FE00B16E62641EF9D10020286293
:1052E000686A38B10849012738070860BFF34F8F53
:1052F000BFF36F8FFFF7A2F93846BDE8F0870000D3
:10530000700000200405002004ED00E02DE9F041CC
:105310000027040015D0FFF7E5F95020EFF31185C1
:1053200080F31188BFF34F8FBFF36F8F2046FEF7D6
:10533000E7FF30B3154EB06B58B104F118011448B3
:105340001DE0502080F31188BFF34F8FBFF36F8FA4
:10535000FEE7E06A3168C96A884200D30127201D50
:10536000FFF7FCF8E16A0120B26988401043B061A0
:1053700001EB81000649B43901EB8000211DFFF7E4
:1053800031F985F311883846BDE8F08170000020BE
:10539000040500200E0000000400000000000000D2
:1053A00000000000100000001800000000000000D5
:1053B00054540008212A00080000000000000000EA
:1053C00060000000000000000000000044540008DD
:1053D0004D2B0008010000000000000060000000EC
:1053E000000000000000000064540008612A00086A
:1053F000000000000000000060000000000000004D
:105400000000000038540008A52A0008020000002F
:10541000000000006000000000000000000000002C
:105420000000000000000000010203040607080954
:10543000000000000102030473656E64434F4D5485
:1054400061736B0073656E64446174615461736B66
:105450000000000072656164416363656C546173B0
:105460006B0000007265616454656D705461736B0C
:10547000000000009454000800000020D400000048
:10548000D82F000868550008D40000206C140000D4
:10549000E82F0008000000000000000000000000ED
:1054A00000000000000000000000000000000000FC
:1054B00000000000000000000000000000000000EC
:1054C00000000000000000000000000000000000DC
:1054D00000000000000000000000000000000000CC
:1054E00000000000000000000000000000000000BC
:1054F000000000000100000010000000000000009B
:105500000024F40000000000000000000000000083
:10551000000000000000000000000000000000008B
:10552000000000000000000000000000000000007B
:10553000000000000000000000000000000000006B
:10554000000000000000000000000000000000005B
:10555000000000000000000000000000AAAAAAAAA3
:08556000000000000000000043
:04000005080000ED02
:00000001FF
